:020000040800F2
:10000000480E00207D020008A92F0008F12D0008ED
:10001000A52F000865060008F14200080000000056
:100020000000000000000000000000008D33000808
:10003000690600080000000019300008E5330008D8
:10004000970200089702000897020008970200082C
:10005000970200089702000897020008970200081C
:10006000970200089702000897020008970200080C
:1000700097020008970200089702000897020008FC
:1000800097020008970200089702000897020008EC
:1000900097020008970200089702000897020008DC
:1000A00097020008970200089702000897020008CC
:1000B000970200089702000800000000970200085D
:1000C00097020008970200089702000897020008AC
:1000D00097020008D142000897020008E142000898
:1000E00097020008970200080000000000000000CE
:1000F0000000000000000000000000000000000000
:1001000000000000970200080000000097020008AD
:10011000970200080000000097020008000000009D
:10012000970200089702000897020008970200084B
:1001300097020008970200089702000800000000DC
:10014000970200089702000897020008970200082B
:10015000970200089702000897020008970200081B
:1001600097020008970200089702000800000000AC
:1001700000000000970200080000000000000000DE
:1001800097020008970200089702000897020008EB
:100190009702000800F002F800F060F80AA090E86A
:1001A000000C82448344AAF10107DA4501D100F032
:1001B00055F8AFF2090EBAE80F0013F0010F18BF9F
:1001C000FB1A43F001031847E052000000530000FF
:1001D0000A4410F8013B13F0030408BF10F8014B68
:1001E0001D1108BF10F8015B641E05D010F8016BEB
:1001F000641E01F8016BF9D1002D15D010F8014BE8
:1002000003F00C030C2BA1EB04040ABF10F8013B14
:10021000A4EB8314A4EB032405F1010314F8016B90
:100220005B1E01F8016BF9D5914238BF10F8013B14
:10023000D1D370470023002400250026103A28BFA0
:1002400078C1FBD8520728BF30C148BF0B60704748
:100250001FB505F0F7F81FBD10B510BD00F0C7F9C8
:100260001146FFF7F5FF04F03FFF00F0E5F903B496
:10027000FFF7F2FF03BC00F0EDF9000009488047EA
:1002800009480047FEE7FEE7FEE7FEE7FEE7FEE778
:10029000FEE7FEE7FEE7FEE704480549054A064B90
:1002A00070470000713400089501000848080020DC
:1002B000480E0020480A0020480A002053EA020C99
:1002C00000F069802DE9F04B4FF00006002B1FBFB6
:1002D000B3FA83F503FA05F424FA05F65E4012BF7B
:1002E0001643B2FA82F502FA05F4C5F120051EBFE5
:1002F00022FA05FC44EA0C04203556EA044C4FEA85
:10030000144418BF641C4FF000084FF000099042DD
:1003100071EB030C39D3002919BFB1FA81F701FA47
:1003200007F6B0FA80F700FA07F6C7F120071EBFFC
:1003300020FA07FC46EA0C062037B6FBF4FCA7EBD4
:100340000507103F07F01F0BCBF120062CFA06F62D
:100350000CFA0BFB44BFB3460026202FA4BF5E4619
:100360004FF0000B5BEA060C08BF4FF0010B19EBD6
:100370000B0948EB0608ABFB027C06FB02CC0BFB2F
:1003800003CCC01B71EB0C01C1E70B460246414692
:100390004846BDE8F08B13B5084318BF4FF0FF3057
:1003A0000146AFF30080BDE81C40704710B5431C08
:1003B00002E010F8011B71B18107FAD14FF0013250
:1003C00002C88C1A8C4314EAC211F9D0C01A0A066A
:1003D00003D0C01E10BDC01A10BD0A0401D0801E7B
:1003E00010BD0902FCD0401E10BD032A40F230802F
:1003F00010F0030C00F0158011F8013BBCF1020F66
:10040000624498BF11F801CB00F8013B38BF11F8E6
:10041000013BA2F1040298BF00F801CB38BF00F8FD
:10042000013B11F0030300F0B080083AC0F00880EF
:1004300051F8043B083A51F804CBA0E80810F5E75E
:10044000121D5CBF51F8043B40F8043BAFF3008041
:10045000D20724BF11F8013B11F801CB48BF11F8B6
:10046000012B24BF00F8013B00F801CB48BF00F886
:10047000012B70474FF000020429C0F0128010F0E9
:10048000030C00F01B80CCF1040CBCF1020F18BF70
:1004900000F8012BA8BF20F8022BA1EB0C0100F003
:1004A0000DB85FEAC17C24BF00F8012B00F8012BD6
:1004B00048BF00F8012B70474FF0000200B513460B
:1004C00094469646203922BFA0E80C50A0E80C5074
:1004D000B1F12001BFF4F7AF090728BFA0E80C5025
:1004E00048BF0CC05DF804EB890028BF40F8042B1E
:1004F00008BF704748BF20F8022B11F0804F18BF8B
:1005000000F8012B7047000030B44FF0013C50F868
:10051000042B51F8043BCCFA52F4D51A20D1FCB983
:1005200050F8042B51F8043BCCFA52F4D51A17D1E9
:10053000B4B950F8042B51F8043BCCFA52F4D51A54
:100540000ED16CB950F8042B51F8043BCCFA52F49C
:10055000D51A05D1002CDAD030BC4FF0000070471E
:1005600029BAB1FA81F111F01801D1F120008440CB
:10057000F2D1CA40CB4012F0FF0213F0FF0330BCAF
:10058000D01A704770477047704710B5203AC0F0D6
:100590000B80B1E81850A0E81850B1E81850A0E856
:1005A0001850203ABFF4F5AF5FEA027C24BFB1E8EF
:1005B0001850A0E8185044BF18C918C0BDE8104032
:1005C0005FEA827C24BF51F8043B40F8043B08BF3B
:1005D0007047D20728BF31F8023B48BF11F8012B02
:1005E00028BF20F8023B48BF00F8012B7047754632
:1005F00000F02CF8AE4605006946534620F007008F
:10060000854618B020B5FFF747FEBDE820404FF003
:1006100000064FF000074FF000084FF0000BAC460B
:10062000ACE8C009ACE8C009ACE8C009ACE8C00956
:1006300021F007018D46704710B50446AFF30080E6
:100640002046BDE81040FFF712BE0000004870478A
:10065000B802002001491820ABBEFEE726000200C8
:1006600070470000FFE7FEE77047000081B0EFF33E
:10067000108072B60090FFE7FEE7000083B00190A3
:1006800000208DF80300019890F8250002280DD075
:10069000FFE701990420C863FFE70199002081F872
:1006A0002400FFE701208DF80B0022E0019801688B
:1006B000086820F00E00086001980168086820F0C2
:1006C000010008600198026C406C00F01C010120E0
:1006D00000FA01F15160019981F82500FFE70199C5
:1006E000002081F82400FFE79DF803008DF80B003F
:1006F000FFE79DF80B0003B07047000080B582B0A3
:10070000019000208DF80300019890F82500022840
:1007100007D0FFE701990420C86301208DF803008A
:1007200026E001980168086820F00E000860019832
:100730000168086820F0010008600198026C406CB4
:1007400000F01C01012000FA01F15160019981F8CB
:100750002500FFE70199002081F82400FFE70198B8
:10076000806B20B1FFE70198816B8847FFE7FFE7C7
:100770009DF8030002B080BD80B584B0039000F006
:10078000D9F90290039801900198013048B1FFE730
:1007900040F2AD20C2F200000178019808440190B7
:1007A000FFE7FFE700F0C6F90299401A0199884275
:1007B00001D2FFE7F6E704B080BD00008AB00990DF
:1007C000089100200790FFE7089800680799C84043
:1007D000002800F09781FFE708980068079A012138
:1007E0009140084006900698002800F08781FFE7B6
:1007F0000898406800F00300012807D0FFE7089838
:10080000406800F0030002282FD1FFE709988068B4
:10081000059007984100032000FA01F105988843EC
:1008200005900898C0680799490000FA01F10598F9
:1008300008430590059809998860099840680590D3
:100840000799012000FA01F105988843059008985E
:100850004068C0F30010079900FA01F105980843B9
:100860000590059809994860FFE70898406800F0EE
:100870000300032818D0FFE70998C068059007987F
:100880004100032000FA01F105988843059008987B
:1008900080680799490000FA01F10598084305901E
:1008A00005980999C860FFE70898406800F00300C0
:1008B000022826D1FFE7099807996FF0030202EAA0
:1008C00051010844006A0590079800F00700810074
:1008D0000F2000FA01F105988843059008980069F7
:1008E000079901F00701890000FA01F10598084312
:1008F000059005980999079B02EA53021144086282
:10090000FFE709980068059007984100032000FA66
:1009100001F10598884305900898406800F00300AD
:100920000799490000FA01F10598084305900598D8
:1009300009990860089880798007002800F0DD8018
:10094000FFE7FFE741F26000C4F20200016841F0F6
:1009500001010160006800F0010004900498FFE7C5
:10096000079820F003000821C4F2010140580590C7
:10097000079800F0030081000F2000FA01F10598AC
:10098000884305900998B0F1904F03D1FFE700200C
:10099000039034E0099840F20041C4F60001884217
:1009A00003D1FFE70120029026E0099840F60001FC
:1009B000C4F60001884203D1FFE70220019018E04D
:1009C000099840F60041C4F60001884203D1FFE7D0
:1009D000032000900AE0099941F20002C4F60002E7
:1009E0000720914208BF04200090FFE70098019083
:1009F000FFE701980290FFE702980390FFE7039852
:100A0000079901F00301890000FA01F105980843F4
:100A100005900598079921F003010822C4F201020C
:100A2000885040F20840C4F2010000680590069921
:100A300005988843059008988079C006002805D558
:100A4000FFE70699059808430590FFE7059840F2EF
:100A50000841C4F20101086040F20C40C4F20100F8
:100A60000068059006990598884305900898807954
:100A70008006002805D5FFE70699059808430590EC
:100A8000FFE7059840F20C41C4F20101086040F212
:100A90000440C4F201000068059006990598884357
:100AA0000590089880798007002805D5FFE706990A
:100AB000059808430590FFE7059840F20441C4F209
:100AC0000101086040F20040C4F201000068059096
:100AD000069905988843059008988079C00728B141
:100AE000FFE70699059808430590FFE7059840F24F
:100AF0000041C4F201010860FFE7FFE707980130F9
:100B0000079061E60AB0704782B00190ADF802101C
:100B10008DF801209DF8010028B1FFE7BDF8020023
:100B20000199886104E0BDF8020001998862FFE73D
:100B300002B0704740F64000C2F200000068704703
:100B400040F2AD20C2F20000027840F64001C2F24D
:100B500000010868104408607047000080B582B04A
:100B600000208DF80700032000F09AF80F2000F015
:100B70000DF820B1FFE701208DF8070002E000F03A
:100B800049F8FFE79DF8070002B080BD80B582B04C
:100B9000019000208DF8030040F2AD20C2F2000069
:100BA000007878B3FFE740F20000C2F2000000686E
:100BB00040F2AD21C2F200010A784FF47A71B1FB24
:100BC000F2F1B0FBF1F001F0FFFAB0B9FFE70198E4
:100BD0000F280DD8FFE701994FF0FF30002200F0F9
:100BE00045F8019840F2B021C2F20001086003E02C
:100BF00001208DF80300FFE703E001208DF80300DA
:100C0000FFE703E001208DF80300FFE79DF80300F4
:100C100002B080BD82B0FFE741F26000C4F2020082
:100C2000016841F001010160006800F001000190DD
:100C30000198FFE7FFE741F25800C4F202000168A3
:100C400041F080510160006800F0805000900098F1
:100C5000FFE702B07047000080B582B08DF8070052
:100C60009DF9070003F046FB02B080BD80B586B059
:100C70008DF81700049103920020029003F052FBBC
:100C800002909DF91700019002980499039A02F0CE
:100C90008DF90146019803F04DFB06B080BD0000C0
:100CA00080B582B00190019803F066FB02B080BD70
:100CB00084B002900298B0F5007F4DD1FFE747F273
:100CC0000000C4F20000006800F4C060B0F5007FCE
:100CD00041D0FFE747F20002C4F200021168012090
:100CE00060F34A21116040F20001C2F2000109687C
:100CF000322251434DF68362C4F21B32A1FB022122
:100D000000EB91400190FFE747F21400C4F20000AD
:100D10000168002049050029009006D5FFE70198E9
:100D2000002818BF01200090FFE70098C00720B1FD
:100D3000FFE7019801380190E6E747F21400C4F29A
:100D4000000000684005002804D5FFE703208DF867
:100D50000F001BE0FFE715E047F20000C4F20000BF
:100D6000006800F4C060B0F5806F0AD0FFE747F27A
:100D70000001C4F200010868022262F34A20086000
:100D8000FFE7FFE700208DF80F00FFE79DF80F0059
:100D900004B0704747F20000C4F20000006800F49D
:100DA000C060704780B586B0059000208DF80B00BC
:100DB0008DF80A0005984078000700283BD5FFE72A
:100DC0000598C06C009098B1FFE70098B0F5000F4F
:100DD00005D0FFE70098B0F5400F11D011E041F2C7
:100DE0000C01C4F20201086840F4803008600CE095
:100DF00005980430002102F011F98DF80B0004E091
:100E000003E001208DF80B00FFE79DF80B0060B9AF
:100E1000FFE741F28801C4F20201086820F44000B3
:100E2000059AD26C1043086004E09DF80B008DF821
:100E30000A00FFE7FFE7059880788007002840F167
:100E4000B580FFE700208DF8090041F25800C4F298
:100E500002000068C000002813D4FFE7FFE741F25A
:100E60005800C4F20200016841F08051016000683E
:100E700000F0805001900198FFE701208DF80900F3
:100E8000FFE747F20001C4F20001086840F48070F7
:100E90000860FFF74FFE0390FFE747F20000C4F23F
:100EA00000000068C00500280CD4FFE7FFF742FEF1
:100EB0000399401A032804D3FFE703208DF80B00A1
:100EC00000E0EAE79DF80B0000285BD1FFE741F264
:100ED0009000C4F20200006800F44070049004988E
:100EE000C8B1FFE704980599496E884213D0FFE71F
:100EF00041F29001C4F20201086820F440700490AD
:100F0000086840F480300860086820F48030086089
:100F100004980860FFE79DF81000C007E0B1FFE704
:100F2000FFF708FE0390FFE741F29000C4F20200D1
:100F30000068800700280ED4FFE7FFF7FBFD039948
:100F4000401A41F28931884204D3FFE703208DF82B
:100F50000B0000E0E8E7FFE79DF80B0060B9FFE752
:100F600041F29001C4F20201086820F44070059A31
:100F7000526E1043086004E09DF80B008DF80A00E3
:100F8000FFE704E09DF80B008DF80A00FFE79DF8ED
:100F90000900012809D1FFE741F25801C4F202011A
:100FA000086820F080500860FFE7FFE705980078A8
:100FB000C00760B1FFE741F28801C4F2020108688E
:100FC00020F00300059A126A10430860FFE70598B5
:100FD0000078800700280CD5FFE741F28801C4F2B1
:100FE0000201086820F00C00059A526A104308605C
:100FF000FFE705980078400700280CD5FFE741F28D
:101000008801C4F20201086820F03000059A926A53
:1010100010430860FFE705980078000700280CD50A
:10102000FFE741F28801C4F20201086820F0C00025
:10103000059AD26A10430860FFE705980078800699
:1010400000280CD5FFE741F28801C4F202010868CC
:1010500020F44060059A126B10430860FFE7059882
:101060004078800700280CD5FFE741F28801C4F2E0
:101070000201086820F44020059A526C1043086071
:10108000FFE705984078400700280CD5FFE741F2BC
:101090008801C4F20201086820F44010059A926C9D
:1010A00010430860FFE705980078400600280CD53B
:1010B000FFE741F28801C4F20201086820F44050C1
:1010C000059A526B10430860FFE705980078000608
:1010D00000280CD5FFE741F28801C4F2020108683C
:1010E00020F44040059A926B10430860FFE7059892
:1010F0004078C00760B1FFE741F28801C4F2020105
:10110000086820F44030059AD26B10430860FFE76E
:1011100005988078C00600280CD5FFE741F29C01B5
:10112000C4F20201086820F00300059A126C104313
:101130000860FFE7059840788006002833D5FFE770
:1011400041F28801C4F20201086820F04060059A6B
:10115000126D104308600598006DB0F1006F09D161
:10116000FFE741F20C01C4F20201086840F480106C
:10117000086017E00598006DB0F1806F11D1FFE7AE
:1011800005980430012101F049FF8DF80B009DF80E
:101190000B0028B1FFE79DF80B008DF80A00FFE770
:1011A000FFE7FFE7FFE7059880780007002834D5C0
:1011B000FFE741F28801C4F20201086820F04060B4
:1011C000059A526D104308600598406DB0F1006FAC
:1011D00009D1FFE741F20C01C4F20201086840F4B2
:1011E0008010086018E00598406DB0F1806F11D153
:1011F000FFE705980430012101F010FF8DF80B0086
:101200009DF80B0028B1FFE79DF80B008DF80A0050
:10121000FFE700E0FFE7FFE7FFE70598807840077A
:10122000002834D5FFE741F28801C4F202010868C2
:1012300020F04060059A926D104308600598806D1B
:10124000B0F1006F09D1FFE741F20C01C4F20201D5
:10125000086840F48010086018E00598806DB0F1CF
:10126000806F11D1FFE705980430012101F0D6FE0F
:101270008DF80B009DF80B0028B1FFE79DF80B00DF
:101280008DF80A00FFE700E0FFE7FFE7FFE70598BA
:1012900040784006002823D5FFE741F28801C4F2D8
:1012A0000201086820F04050059AD26D1043086092
:1012B0000598C06DB0F1805F11D1FFE7059804304B
:1012C000022101F0ABFE8DF80B009DF80B0028B158
:1012D000FFE79DF80B008DF80A00FFE7FFE7FFE747
:1012E00005988078C00760B1FFE741F28801C4F239
:1012F0000201086820F00040059A126E1043086051
:10130000FFE79DF80A0006B080BD000080B586B0FA
:1013100004900391049820B9FFE701208DF817008D
:1013200041E1039842F20001C4F20201096801F0B0
:101330000701884216D9FFE742F20000C4F202001A
:10134000016821F00701039A11430160006800F071
:1013500007000399884204D0FFE701208DF81700A9
:1013600021E1FFE7049800788007002819D5FFE7FE
:101370000498806841F20801C4F20201096801F092
:10138000F00188420CD9FFE741F20801C4F20201E2
:10139000086820F0F000049A926810430860FFE7A4
:1013A000FFE704980078C007002873D0FFE704988F
:1013B000406803280ED1FFE741F20000C4F20200AA
:1013C00000688001002804D4FFE701208DF8170091
:1013D000E9E034E00498406802280ED1FFE741F2CA
:1013E0000000C4F2020000688003002804D4FFE774
:1013F00001208DF81700D6E020E00498406870B90D
:10140000FFE741F20000C4F20200006880070028F4
:1014100004D4FFE701208DF81700C4E00DE041F28D
:101420000000C4F2020000684005002804D4FFE771
:1014300001208DF81700B6E0FFE7FFE7FFE741F274
:101440000801C4F20201086820F00300049A5268FF
:1014500010430860FFF76EFB0290FFE741F20800BF
:10146000C4F20200006800F00C0004994968B0EB77
:10147000810F0ED0FFE7FFF75DFB0299401A41F2A2
:101480008931884204D3FFE703208DF817008AE0F2
:10149000E4E7FFE7049800788007002819D5FFE704
:1014A0000498806841F20801C4F20201096801F061
:1014B000F00188420CD2FFE741F20801C4F20201B8
:1014C000086820F0F000049A926810430860FFE773
:1014D000FFE7039842F20001C4F20201096801F03B
:1014E0000701884216D2FFE742F20000C4F2020070
:1014F000016821F00701039A11430160006800F0C0
:1015000007000399884204D0FFE701208DF81700F7
:1015100049E0FFE704980078400700280CD5FFE772
:1015200041F20801C4F20201086820F4E060049A64
:10153000D26810430860FFE704980078000700288D
:101540000DD5FFE741F20801C4F20201086820F45A
:101550006050049A126940EAC2000860FFE700F098
:1015600055F841F20801C4F202010968C9B20A093A
:1015700045F25E41C0F60001895C01F01F01C840E0
:1015800040F20001C2F20001086040F2B020C2F255
:1015900000000068FFF7FAFA8DF807009DF80700D1
:1015A0008DF81700FFE79DF8170006B080BD00001A
:1015B00040F20000C2F200000068704780B5FFF7FB
:1015C000F7FF41F20801C4F202010968C1F30222E7
:1015D00045F26E41C0F60001895C01F01F01C84070
:1015E00080BD000080B5FFF7E3FF41F20801C4F2BF
:1015F00002010968C1F3C22245F26E41C0F6000142
:10160000895C01F01F01C84080BD000089B0002046
:101610000890079041F20800C4F20200006800F050
:101620000C00029041F20C00C4F20200006800F0CD
:1016300003000190029840B1FFE702980C282ED1D8
:10164000FFE7019801282AD1FFE741F20000C4F228
:10165000020000680007002809D4FFE741F2940067
:10166000C4F202000068C0F30320089008E041F2D1
:101670000000C4F202000068C0B200090890FFE751
:10168000089945F27840C0F6000050F82100089013
:10169000029818B9FFE708980790FFE716E002984C
:1016A000042806D1FFE742F20040C0F2F4000790A0
:1016B0000BE00298082806D1FFE741F20020C0F2B3
:1016C0007A00079000E0FFE7FFE7FFE702980C28A9
:1016D00046D1FFE741F20C00C4F20200006800F0BE
:1016E0000300059005980090012814D0FFE70098AA
:1016F000022804D0FFE70098032806D00CE042F24D
:101700000040C0F2F400069009E041F20020C0F26F
:101710007A00069003E0FFE708980690FFE741F2A1
:101720000C00C4F20200016801F07002012101EB1B
:101730001211039106990268C2F306225143039ADB
:10174000B1FBF2F10691006800F0C061022000EBED
:101750001160049006980499B0FBF1F00790FFE740
:10176000079809B070470000B0B58AB00890089893
:1017700028B9FFE701208DF8270000F021BD41F2D4
:101780000800C4F20200006800F00C00059041F26D
:101790000C00C4F20200006800F0030004900898F6
:1017A0000078C006002840F12E81FFE7059850B16F
:1017B000FFE705980C2840F0BD80FFE7049801285A
:1017C00040F0B880FFE741F20000C4F20200006878
:1017D0008007002809D5FFE70898806928B9FFE746
:1017E00001208DF8270000F0EBBC0898006A0190FA
:1017F00041F20000C4F2020000680007002809D589
:10180000FFE741F20000C4F20200006800F0F000BF
:10181000009009E041F29400C4F20200006800F474
:10182000706000090090FFE701980099884229D96B
:10183000FFE70898006A01F031FD28B1FFE70120B9
:101840008DF8270000F0BCBCFFE741F20001C4F2B4
:101850000201086840F008000860086820F0F00005
:10186000089A126A10430860FFE741F20401C4F2CB
:101870000201086820F47F40089AD26940EA0220F9
:1018800008602CE0FFE741F20001C4F202010868A1
:1018900040F008000860086820F0F000089A126A1A
:1018A00010430860FFE741F20401C4F20201086836
:1018B00020F47F40089AD26940EA02200860059827
:1018C00060B9FFE70898006A01F0E8FC28B1FFE77B
:1018D00001208DF8270000F073BCFFE7FFE7FFF75A
:1018E00095FE41F20801C4F202010968C9B20A0971
:1018F00045F25E41C0F60001895C01F01F01C8405D
:1019000040F20001C2F20001086040F2B020C2F2D1
:1019100000000068FFF73AF98DF81B009DF81B00E6
:1019200030B1FFE79DF81B008DF8270000F048BCA0
:10193000FFE767E008988069002840D0FFE741F2A0
:101940000001C4F20201086840F001000860FFF7DE
:10195000F1F80790FFE741F20000C4F202000068CE
:10196000800700280DD4FFE7FFF7E4F80799401A35
:10197000032805D3FFE703208DF8270000F020BCE3
:10198000E9E7FFE741F20001C4F20201086840F014
:1019900008000860086820F0F000089A126A1043F6
:1019A0000860FFE741F20401C4F20201086820F474
:1019B0007F40089AD26940EA0220086021E041F2A3
:1019C0000001C4F20201086820F001000860FFF77E
:1019D000B1F80790FFE741F20000C4F2020000688E
:1019E000800700280CD5FFE7FFF7A4F80799401AF5
:1019F000032804D3FFE703208DF82700E0E3EAE79C
:101A0000FFE7FFE7FFE708980078C007002800F02D
:101A10008B80FFE70598082808D0FFE705980C2879
:101A200016D1FFE70498032812D1FFE741F2000026
:101A3000C4F2020000688003002808D5FFE7089878
:101A4000406820B9FFE701208DF82700B8E36AE07D
:101A5000FFE708984068B0F5803F09D1FFE741F201
:101A60000001C4F20201086840F48030086020E000
:101A700008984068B0F5A02F0DD1FFE741F20001B2
:101A8000C4F20201086840F480200860086840F44D
:101A9000803008600CE041F20001C4F202010868E5
:101AA00020F480300860086820F480200860FFE798
:101AB000FFE7FFE708984068D0B1FFE7FFF73AF883
:101AC0000790FFE741F20000C4F2020000688003C3
:101AD00000280CD4FFE7FFF72DF80799401A652876
:101AE00004D3FFE703208DF8270069E3EAE719E054
:101AF000FFF720F80790FFE741F20000C4F2020070
:101B00000068800300280CD5FFE7FFF713F807995A
:101B1000401A652804D3FFE703208DF827004FE320
:101B2000EAE7FFE7FFE7FFE708980078800700286B
:101B300040F18280FFE70598042808D0FFE7059868
:101B40000C2823D1FFE7049802281FD1FFE741F2B8
:101B50000000C4F2020000684005002808D5FFE735
:101B60000898C06820B9FFE701208DF8270027E317
:101B700041F20401C4F20201086820F0FE40089A14
:101B8000126940EA02600860FFE754E00898C06804
:101B900070B3FFE741F20001C4F20201086840F4AB
:101BA00080700860FEF7C6FF0790FFE741F2000073
:101BB000C4F202000068400500280CD4FFE7FEF7DD
:101BC000B9FF0799401A032804D3FFE703208DF8D3
:101BD0002700F5E2EAE741F20401C4F202010868D5
:101BE00020F0FE40089A126940EA0260086021E095
:101BF00041F20001C4F20201086820F4807008601C
:101C0000FEF798FF0790FFE741F20000C4F20200E0
:101C10000068400500280CD5FFE7FEF78BFF079909
:101C2000401A032804D3FFE703208DF82700C7E2FA
:101C3000EAE7FFE7FFE7FFE70898007800070028DA
:101C400049D5FFE70898406910B3FFE741F29401D6
:101C5000C4F20201086840F001000860FEF76AFF64
:101C60000790FFE741F29400C4F202000068800789
:101C700000280CD4FFE7FEF75DFF0799401A032800
:101C800004D3FFE703208DF8270099E2EAE721E07B
:101C900041F29401C4F20201086820F001000860DA
:101CA000FEF748FF0790FFE741F29400C4F20200FC
:101CB0000068800700280CD5FFE7FEF73BFF079977
:101CC000401A032804D3FFE703208DF8270077E2AA
:101CD000EAE7FFE7FFE7089800784007002840F1AF
:101CE000C680FFE700208DF80F0041F25800C4F2D3
:101CF00002000068C000002813D4FFE7FFE741F2AC
:101D00005800C4F20200016841F08051016000688F
:101D100000F0805002900298FFE701208DF80F003C
:101D2000FFE747F20000C4F200000068C005002889
:101D300022D4FFE747F20001C4F20001086840F432
:101D400080700860FEF7F6FE0790FFE747F200009C
:101D5000C4F200000068C00500280CD4FFE7FEF7BD
:101D6000E9FE0799401A032804D3FFE703208DF802
:101D7000270025E2EAE7FFE7FFE7089880680128E7
:101D800009D1FFE741F29001C4F20201086840F076
:101D9000010008601FE00898806805280DD1FFE762
:101DA00041F29001C4F20201086840F004000860AA
:101DB000086840F0010008600CE041F29001C4F2B4
:101DC0000201086820F001000860086820F00400A3
:101DD0000860FFE7FFE7FFE708988068E0B1FFE7EA
:101DE000FEF7A8FE0790FFE741F29000C4F2020060
:101DF0000068800700280ED4FFE7FEF79BFE0799D6
:101E0000401A41F28931884204D3FFE703208DF85C
:101E10002700D5E1E8E71BE0FEF78CFE0790FFE71F
:101E200041F29000C4F202000068800700280ED53D
:101E3000FFE7FEF77FFE0799401A41F28931884299
:101E400004D3FFE703208DF82700B9E1E8E7FFE7B7
:101E50009DF80F00012809D1FFE741F25801C4F2B3
:101E60000201086820F080500860FFE7FFE708984B
:101E700000788006002849D5FFE70898406A10B32B
:101E8000FFE741F29801C4F20201086840F0010046
:101E90000860FEF74FFE0790FFE741F29800C4F29A
:101EA00002000068800700280CD4FFE7FEF742FE1E
:101EB0000799401A032804D3FFE703208DF8270071
:101EC0007EE1EAE721E041F29801C4F202010868EC
:101ED00020F001000860FEF72DFE0790FFE741F2B9
:101EE0009800C4F202000068800700280CD5FFE7C4
:101EF000FEF720FE0799401A032804D3FFE70320CA
:101F00008DF827005CE1EAE7FFE7FFE70898806AC1
:101F1000002800F05181FFE70898806A022840F00D
:101F20001481FFE741F20C00C4F202000068049043
:101F3000049800F003000899C96A88423CD1FFE781
:101F4000049800F0700008990A6B6FF00F0101EB24
:101F50000211884230D1FFE7049800F4FE4008994E
:101F6000496BB0EB012F27D1FFE7049800F07840D0
:101F70000899896BB0EBC16F1ED1FFE7049800F49C
:101F8000C0000899CA6B0021CFF6E07101EA025146
:101F9000A1F5001188420FD1FFE7049800F0C0605E
:101FA00008990A6C4FF07E4101EA026101F17E411D
:101FB000884200F09580FFE705980C2800F08B80A0
:101FC000FFE741F20000C4F202000068400100286F
:101FD00004D5FFE701208DF82700F1E041F2000170
:101FE000C4F20201086820F080700860FEF7A2FDCC
:101FF0000790FFE741F20000C4F202000068800190
:1020000000280CD5FFE7FEF795FD0799401A032835
:1020100004D3FFE703208DF82700D1E0EAE741F27F
:102020000C01C4F20201086848F28C02C0F29D1251
:102030001040DDF820C0DCF82C20DCF83050DCF853
:1020400034E0DCF838306FF00F0404EB0514224361
:1020500042EA0E22DCF83C4040F2000ECFF6E07E71
:102060000EEA045EAEF5001E42EA0E02DCF840E025
:102070004FF07E4C0CEA0E6C0CF17E4C42EA0C02E6
:1020800042EAC3621043086041F20002C4F2020255
:10209000106840F080701060086840F08070086040
:1020A000FEF748FD0790FFE741F20000C4F202008E
:1020B0000068800100280CD4FFE7FEF73BFD07997C
:1020C000401A032804D3FFE703208DF8270077E0A8
:1020D000EAE7FFE703E001208DF8270070E033E036
:1020E00041F20000C4F202000068800100282AD4F6
:1020F000FFE741F20001C4F20201086840F080707D
:10210000086041F20C01C4F20201086840F08070DE
:102110000860FEF70FFD0790FFE741F20000C4F2F0
:1021200002000068800100280CD4FFE7FEF702FDE2
:102130000799401A032804D3FFE703208DF82700EE
:102140003EE0EAE7FFE7FFE735E005980C282DD0F1
:10215000FFE741F20001C4F20201086820F080703C
:102160000860FEF7E7FC0790FFE741F20000C4F2C9
:1021700002000068800100280CD5FFE7FEF7DAFCBA
:102180000799401A032804D3FFE703208DF827009E
:1021900016E0EAE741F20C01C4F2020108684FF6CA
:1021A000FC72CFF6EE621040086003E001208DF86B
:1021B000270005E0FFE7FFE700208DF82700FFE795
:1021C0009DF827000AB0B0BD80B582B0019001989B
:1021D00001F0DEF802B080BD82B00190ADF80210CF
:1021E00002B0704781B0009001B0704781B000909C
:1021F00001B0704780B590B00F900F980068C0692B
:102200000E900F98006800680D900F980068806825
:102210000C900E9840F60F0108400B900B98B0B947
:10222000FFE79DF83800800600280FD5FFE79DF8EE
:1022300034008006002809D5FFE70F98406E20B1D2
:10224000FFE70F98416E8847FFE739E2FFE70B98F9
:10225000002800F0FE80FFE79DF83000C00748B975
:10226000FFE70D9840F22011C0F20041084200F053
:10227000F080FFE79DF83800C00788B1FFE79DF8C0
:102280003500C00760B1FFE70F98016801200862C0
:102290000F99D1F8800040F00100C1F88000FFE7FD
:1022A0009DF838008007002811D5FFE79DF8300021
:1022B000C00760B1FFE70F980168022008620F991C
:1022C000D1F8800040F00400C1F88000FFE79DF8DD
:1022D00038004007002811D5FFE79DF83000C007FF
:1022E00060B1FFE70F980168042008620F99D1F8E8
:1022F000800040F00200C1F88000FFE79DF8380040
:102300000007002817D5FFE79DF834008006002855
:1023100005D4FFE79DF83000C00760B1FFE70F98D4
:102320000168082008620F99D1F8800040F0080089
:10233000C1F88000FFE79DF839000007002813D599
:10234000FFE79DF83700400700280DD5FFE70F98FD
:1023500001684FF4006008620F99D1F8800040F0E6
:102360002000C1F88000FFE70F98D0F88000002817
:102370006ED0FFE79DF83800800600280FD5FFE7F4
:102380009DF834008006002809D5FFE70F98406EBD
:1023900020B1FFE70F98416E8847FFE7FFE70F98EE
:1023A000D0F880000A900F980068806800F0400024
:1023B000402806D0FFE79DF8280010F0280F3ED0F7
:1023C000FFE70F9801F066F90F98006880684006F3
:1023D00000282FD5FFE7FFE7FFE70F98006850E8D8
:1023E000020F20F040000990FFE709990F9802685A
:1023F00042E802100028F0D1FFE7FFE70F98006FD6
:1024000098B1FFE70F98016F43F27160C0F60000CA
:1024100088630F98006FFEF771F928B1FFE70F98F6
:10242000006F816B8847FFE703E00F98FFF7DEFE40
:10243000FFE703E00F98FFF7D9FEFFE707E00F98EB
:10244000FFF7D4FE0F990020C1F88000FFE7FFE7F7
:1024500036E10F98006E012840F0F880FFE79DF804
:102460003800C006002840F1F180FFE79DF83400F5
:10247000C006002840F1EA80FFE70F9801681020AD
:1024800008620F98006880684006002840F1838049
:10249000FFE70F98006F00684068ADF82200BDF8B4
:1024A0002200002876D0FFE7BDF822000F99B1F88E
:1024B000581088426EDAFFE7BDF822000F99A1F8A4
:1024C0005A000F98006F006800688006002857D4F3
:1024D000FFE7FFE7FFE70F98006850E8000F20F4E0
:1024E00080700790FFE707990F98026842E8001094
:1024F0000028F0D1FFE7FFE7FFE7FFE70F9800684C
:1025000050E8020F20F001000690FFE706990F98AF
:10251000026842E802100028F0D1FFE7FFE7FFE77A
:10252000FFE70F98006850E8020F20F04000059088
:10253000FFE705990F98026842E802100028F0D1E1
:10254000FFE7FFE70F992020C8670F990020086672
:10255000FFE7FFE70F98006850E8000F20F0100039
:102560000490FFE704990F98026842E800100028E1
:10257000F0D1FFE7FFE70F98006FFEF77FF8FFE766
:102580000F98B0F85810B0F85A20891A89B2FFF79E
:1025900023FEFFE794E00F99B1F85800B1F85A1004
:1025A000401AADF80E000F98B0F85A0000284CD031
:1025B000FFE7BDF80E00002847D0FFE7FFE7FFE781
:1025C0000F98006850E8000F20F490700290FFE729
:1025D00002990F98026842E800100028F0D1FFE746
:1025E000FFE7FFE7FFE70F98006850E8020F20F0D1
:1025F00001000190FFE701990F98026842E802107C
:102600000028F0D1FFE7FFE70F992020C8670F9956
:10261000002008660F994866FFE7FFE70F980068FB
:1026200050E8000F20F010000090FFE700990F988D
:10263000026842E800100028F0D1FFE7FFE70F989A
:10264000BDF80E10FFF7C8FDFFE739E09DF83A002E
:10265000C00600280FD5FFE79DF83200400600288D
:1026600009D5FFE70F9801684FF4801008620F98B2
:10267000FFF7B8FD24E09DF83800000600280FD5CC
:10268000FFE79DF834000006002809D5FFE70F9802
:10269000806E20B1FFE70F98816E8847FFE70FE05B
:1026A0009DF83800400600280AD5FFE79DF8340061
:1026B0004006002804D5FFE70F9801F037F8FFE740
:1026C00010B080BD80B582B00090009820B9FFE7BF
:1026D00001208DF8070044E00098806908B1FFE709
:1026E00000E0FFE70098806F40B9FFE70099002005
:1026F00081F87400009800F039F8FFE70099242071
:10270000886700980168086820F001000860009858
:1027100001F05CF9012804D1FFE701208DF80700E2
:102720001FE00098406A20B1FFE7009800F0AAFE81
:10273000FFE700980168486820F4904048600098DE
:102740000168886820F02A0088600098016808689D
:1027500040F001000860009800F038FF8DF8070095
:10276000FFE79DF8070002B080BD000080B5ACB067
:102770002B9000202A9029902890279026900CA832
:102780006821FDF799FE2B98006844F60041C4F2D9
:10279000000188423DD1FFE708200C9000201790EF
:1027A0000CA8FEF7FFFA18B1FFE7FDF75FFFFFE7A0
:1027B000FFE741F25800C4F20200016841F4002131
:1027C0000160006800F400200B900B98FFE7FFE722
:1027D00041F24C00C4F20200016841F004010160C2
:1027E000006800F004000A900A98FFE74FF4406088
:1027F000269002202790002028900320299008206E
:102800002A9040F60000C4F6000026A9FDF7D6FF86
:10281000A0E02B98006843F60001C4F20101884251
:1028200045D1FFE701200C90002014900CA8FEF782
:10283000B9FA18B1FFE7FDF719FFFFE7FFE741F22B
:102840006000C4F20200016841F480410160006848
:1028500000F4804009900998FFE7FFE741F24C003F
:10286000C4F20200016841F001010160006800F05B
:10287000010008900898FFE74FF4C06026900220FE
:1028800027900020049028900320299007202A9068
:102890004FF0904026A9FDF791FF049A252005905E
:1028A0000121FEF7E3F90598FEF7D6F951E02B98E0
:1028B000006844F60001C4F20001884248D1FFE7F5
:1028C00004200C90002016900CA8FEF76BFA18B1AB
:1028D000FFE7FDF7CBFEFFE7FFE741F25800C4F248
:1028E0000200016841F480210160006800F480204A
:1028F00007900798FFE7FFE741F24C00C4F202009F
:10290000016841F002010160006800F002000690D9
:102910000698FFE74FF44060269002200190279030
:102920000020029028900320299007202A9040F24E
:102930000040C4F6000026A9FDF740FF0199029A65
:1029400027200390FEF792F90398FEF785F9FFE739
:10295000FFE7FFE72CB080BD80B586B004900391FF
:10296000ADF80A200498C06F20284DD1FFE70398E6
:1029700020B1FFE7BDF80A0020B9FFE701208DF87C
:10298000170045E0FFE7049890F87400012804D18F
:10299000FFE702208DF817003AE00499012081F842
:1029A0007400FFE7FFE704990020086604980068B8
:1029B00048F20001C4F2000188421CD0FFE70498ED
:1029C000006840680002002814D5FFE7FFE7FFE732
:1029D0000498006850E8000F40F080600190FFE725
:1029E00001990498026842E800100028F0D1FFE73E
:1029F000FFE7FFE7FFE704980399BDF80A2001F01D
:102A000059FA8DF8170003E002208DF81700FFE750
:102A10009DF8170006B080BD80B58CB00B900B9868
:102A2000006840F21441C2F20001096888421CD1DA
:102A3000FFE740F21440C2F2000040F2E551C2F25A
:102A400000010A910122FFF787FF0A98007840F2FF
:102A50002031C2F200010B6840F24A62C2F2000269
:102A6000D054086801300860FFE740F24A60C2F2C3
:102A700000000990FDF79AFC0999084410F8020C2F
:102A80000D282CD1FFE740F24A60C2F20000089006
:102A9000FDF78CFC0899084410F8010C0A281ED197
:102AA000FFE740F2E650C2F2000040F24A61C2F293
:102AB0000001079164220692FDF797FC069907989A
:102AC000FDF7D8FC40F22031C2F20001002008607E
:102AD00040F28C31C2F2000101200860FFE70B9840
:102AE000006840F29031C2F20001096888421CD1AE
:102AF000FFE740F29030C2F2000040F21C51C2F2F7
:102B0000000105910122FFF727FF0598007840F2A8
:102B10001C31C2F200010B6840F28152C2F2000285
:102B2000D054086801300860FFE740F28150C2F2DB
:102B300000000490FDF73AFC0499084410F8020CD8
:102B40000D282CD1FFE740F28150C2F20000039023
:102B5000FDF72CFC0399084410F8010C0A281ED13B
:102B6000FFE740F21D50C2F2000040F28151C2F274
:102B70000001029164220192FDF737FC019902984D
:102B8000FDF778FC40F21C31C2F200010020086021
:102B900040F28831C2F2000101200860FFE70CB06A
:102BA00080BD000080B58AB008900791ADF81A206A
:102BB00005930898806F202840F09480FFE70798DD
:102BC00020B1FFE7BDF81A0020B9FFE701208DF81A
:102BD00027008BE0FFE7089890F87400012804D1E3
:102BE000FFE702208DF8270080E00899012081F896
:102BF0007400FFE7FFE708990020C1F880000899FA
:102C000021208867FDF796FF0290BDF81A00089909
:102C1000A1F85000BDF81A000899A1F852000898D0
:102C20008068B0F5805F09D1FFE70898006928B98E
:102C3000FFE7002004900798039004E007980490B1
:102C400000200390FFE7FFE70899002081F8740057
:102C5000FFE7FFE70898B0F8520068B3FFE708986D
:102C6000029B05996A4611608021002201F078FAE2
:102C700020B1FFE703208DF8270037E0049858B90A
:102C8000FFE7039800886FF35F20089909680885BB
:102C900003980230039008E00498007808990968C6
:102CA0000885049801300490FFE70899B1F85200B4
:102CB0000138A1F85200CDE70898029B05996A46B1
:102CC00011604021002201F04BFA20B1FFE7032000
:102CD0008DF827000AE008992020886700208DF8E9
:102CE000270003E002208DF82700FFE79DF827006A
:102CF0000AB080BD85B003900291ADF8062003981C
:102D0000806F202867D1FFE7029820B1FFE7BDF868
:102D1000060020B9FFE701208DF813005FE0FFE710
:102D2000039890F87400012804D1FFE702208DF881
:102D3000130054E00399012081F87400FFE7FFE7D6
:102D400002980399C864BDF806000399A1F85000E1
:102D5000BDF806000399A1F8520003990020886687
:102D60000399C1F88000039921208867039880683F
:102D7000B0F5805F0BD1FFE70398006938B9FFE732
:102D8000039944F23D00C0F60000886606E003990E
:102D900044F2D500C0F600008866FFE7FFE703991C
:102DA000002081F87400FFE7FFE7FFE70398006861
:102DB00050E8000F40F080000090FFE70099039872
:102DC000026842E800100028F0D1FFE7FFE700208A
:102DD0008DF8130003E002208DF81300FFE79DF843
:102DE000130005B07047000081B0009001B070473B
:102DF000FFE7FEE780B590B000200F900E900D9099
:102E00000C900B90FFE741F24C00C4F20200016805
:102E100041F004010160006800F004000A900A9883
:102E2000FFE7FFE741F24C00C4F20200016841F005
:102E300002010160006800F0020009900998FFE7B4
:102E4000FFE741F24C00C4F20200016841F00101C9
:102E50000160006800F0010008900898FFE740F664
:102E60000000C4F6000002902A2101910022059280
:102E7000FDF74AFE059A40F20040C4F600000690B5
:102E800046F21B010391FDF73FFE019A0298059956
:102E90000B92012204920C920D910E910BA90791B5
:102EA000FDF78CFCDDF80CC0049B059A0698079989
:102EB000CDF82CC00C930D920E92FDF77FFC059A75
:102EC000069807994FF448730B930C920D92FDF7F7
:102ED00075FC10B080BD000080B582B040F2984013
:102EE000C2F20000019044F60041C4F2000101600A
:102EF0004FF4E131416000218160C16001610C2229
:102F000042618161C16101624162FFF7DBFB18B17F
:102F1000FFE7FDF7ABFBFFE702B080BD80B582B0F5
:102F200040F29030C2F20000019043F60001C4F27A
:102F3000010101604FF4E131416000218160C16015
:102F400001610C2242618161C16101624162FFF74E
:102F5000B9FB18B1FFE7FDF789FBFFE702B080BDC1
:102F600080B582B040F21440C2F20000019044F6F5
:102F70000001C4F2000101604FF4E1314160002121
:102F80008160C16001610C2242618161C1610162A5
:102F90004162FFF797FB18B1FFE7FDF767FBFFE71B
:102FA00002B080BDFFE7FEE7FFE7FEE788B00790CD
:102FB00006910592079800F0070004900498C0F16C
:102FC0000700052803D3FFE70420019004E00498DC
:102FD000C0F107000190FFE70198039004980430C6
:102FE000062803D8FFE70020009003E00498033888
:102FF0000090FFE70098029006980399012202FAD8
:1030000001F101390840029B984005999A40013A24
:103010001140084308B070477047000080B586B083
:103020000590049100208DF80B0041F20C00C4F2D1
:1030300002000068800720B3FFE741F20C00C4F2F1
:103040000200006800F0030005990968884213D166
:10305000FFE70598006878B1FFE741F20C00C4F281
:103060000200006800F07001012000EB11100599CA
:103070004968884204D0FFE701208DF80B00FFE784
:103080005DE0059800680190012808D0FFE70198ED
:10309000022812D0FFE7019803281CD033E041F248
:1030A0000000C4F2020000688007002804D4FFE793
:1030B00001208DF80B00FFE729E041F20000C4F287
:1030C000020000684005002804D4FFE701208DF8C5
:1030D0000B00FFE71BE041F20000C4F202000068B1
:1030E000800300280ED4FFE741F20000C4F2020082
:1030F00000684003002804D4FFE701208DF80B008E
:10310000FFE7FFE703E001208DF80B00FFE79DF8E4
:103110000B0098B9FFE741F20C01C4F20201086804
:1031200020F07300059B1A68D3F804C06FF00F03FA
:1031300003EB0C131A4310430860FFE7FFE79DF809
:103140000B00002840F0A680FFE741F20001C4F226
:103150000201086820F080600860FDF7EBFC039036
:10316000FFE741F20000C4F20200006800010028FD
:103170000CD5FFE7FDF7DEFC0399401A032804D3C2
:10318000FFE703208DF80B0000E0EAE79DF80B0055
:1031900000287ED1FFE7049898B9FFE741F21001BB
:1031A000C4F20201086848F2FF02C0F2FF72104048
:1031B000059B9A68DB68120242EAC362104308600A
:1031C00037E0049801281AD1FFE741F21001C4F258
:1031D0000201086848F2FF02CFF69F721040059A7C
:1031E0009368D2F810C00022CFF6E07202EA0C52C7
:1031F000A2F5001242EA03221043086018E041F2EF
:103200001001C4F20201086848F2FF02CFF6FF1273
:103210001040059A9368D2F814C04FF07E4202EA3B
:103220000C6202F17E4242EA032210430860FFE78B
:10323000FFE741F20001C4F20201086840F080603B
:103240000860FDF777FC0390FFE741F20000C4F24D
:1032500002000068000100280CD4FFE7FDF76AFCBB
:103260000399401A032804D3FFE703208DF80B00CD
:1032700000E0EAE79DF80B0050B9FFE70598826986
:1032800041F21001C4F20201086810430860FFE730
:10329000FFE7FFE79DF80B0006B080BD80B586B064
:1032A00004900020029041F25800C4F2020000682D
:1032B000C000002804D5FFE7FDF76CFD03901AE07D
:1032C000FFE741F25800C4F20200016841F080516A
:1032D0000160006800F0805001900198FFE7FDF761
:1032E00059FD039041F25801C4F20201086820F030
:1032F00080500860FFE70398B0F5007F10D1FFE72A
:10330000049881280BD3FFE70498A12803D3FFE793
:103310000220029002E001200290FFE7FFE717E0A1
:103320000498812803D3FFE7032002900FE004985C
:10333000802803D1FFE70220029007E0049870285C
:1033400003D1FFE701200290FFE7FFE7FFE7FFE778
:1033500042F20000C4F20200016821F00701029A63
:1033600011430160006800F007000299884204D010
:10337000FFE701208DF8170003E000208DF817000B
:10338000FFE79DF8170006B080BD00007047000001
:1033900080B582B0009000980138B0F1807F03D3EF
:1033A000FFE70120019019E0009801384EF2140166
:1033B000CEF2000108604FF0FF300F2100F0BAFF9D
:1033C0004EF21801CEF20001002008604EF2100209
:1033D000CEF20002072111600190FFE7019802B0D0
:1033E00080BD000080B5FDF7ABFB80BD80B596B019
:1033F00005A84421FDF760F8002004900390029096
:10340000019000904FF40070FDF752FC18B1FFE7F7
:10341000FDF72CF9FFE7022005904FF48071089129
:10342000402109910F901090012111910A211291D0
:10343000072113911490159005A8FEF795F918B17E
:10344000FFE7FDF713F9FFE70F200090032001903D
:10345000002002900390049068460421FDF756FF77
:1034600018B1FFE7FDF702F9FFE716B080BD0000D5
:103470004EF68851CEF20001086840F470000860F2
:103480007047000081B00090009890F82400C007B9
:1034900058B1FFE700980068406820F40030009AB7
:1034A0001168926A10434860FFE7009890F8240082
:1034B000800700280BD5FFE700980068406820F4DB
:1034C0008030009A1168D26A10434860FFE7009884
:1034D00090F82400400700280BD5FFE7009800680B
:1034E000406820F48020009A1168126B10434860F5
:1034F000FFE7009890F82400000700280BD5FFE7AD
:1035000000980068406820F40040009A1168526BEF
:1035100010434860FFE7009890F82400C006002898
:103520000BD5FFE700980068806820F48050009A6F
:103530001168926B10438860FFE7009890F82400B0
:10354000800600280BD5FFE700980068806820F40B
:103550000050009A1168D26B10438860FFE7009812
:1035600090F82400400600281CD5FFE7009800686A
:10357000406820F48010009A1168126C1043486073
:103580000098006CB0F5801F0BD1FFE70098006831
:10359000406820F4C000009A1168526C10434860E3
:1035A000FFE7FFE7009890F82400000600280BD5FD
:1035B000FFE700980068406820F40020009A116836
:1035C000926C10434860FFE701B0704780B584B04B
:1035D000029002990020C1F88000FDF7ABFA01903B
:1035E0000298006800680007002812D5FFE70298DB
:1035F000019B6A466FF07E4111604FF4001100227A
:1036000000F0AEFD20B1FFE703208DF80F002BE0A6
:10361000FFE70298006800684007002812D5FFE71E
:103620000298019B6A466FF07E4111604FF4800161
:10363000002200F095FD20B1FFE703208DF80F0078
:1036400012E0FFE70299202088670299C867029973
:1036500000200866FFE70299002081F87400FFE768
:1036600000208DF80F00FFE79DF80F0004B080BD2B
:1036700080B582B001900198806A00900099002086
:10368000A1F85A000099A1F852000098FEF7AEFD8B
:1036900002B080BD84B00390FFE7FFE703980068A5
:1036A00050E8000F20F490700290FFE70299039811
:1036B000026842E800100028F0D1FFE7FFE7FFE7CB
:1036C000FFE70398006850E8020F20F00100019026
:1036D000FFE701990398026842E802100028F0D140
:1036E000FFE7FFE70398006E012814D1FFE7FFE72B
:1036F000FFE70398006850E8000F20F010000090EA
:10370000FFE700990398026842E800100028F0D112
:10371000FFE7FFE7FFE703992020C8670399002030
:1037200008660399486604B07047000080B582B00F
:103730000190FFE7FFE70198006850E8000F20F0D4
:1037400040000090FFE700990198026842E80010ED
:103750000028F0D1FFE7FFE7019920208867019951
:10376000002088660198FFF73FFB02B080BD000093
:1037700080B586B005900598B0F85C00ADF80E00F5
:103780000598C06F222840F08280FFE70598006806
:10379000808CADF80C000598406D0490BDF80C00CD
:1037A000BDF80E100840049908800599486D023054
:1037B00048650599B1F85A000138A1F85A000598F2
:1037C000B0F85A00002861D1FFE7FFE7FFE705984E
:1037D000006850E8000F20F490700290FFE7029913
:1037E0000598026842E800100028F0D1FFE7FFE7E3
:1037F000FFE7FFE70598006850E8020F20F001009E
:103800000190FFE701990598026842E8021000283C
:10381000F0D1FFE7FFE705992020C8670599002050
:1038200048660598006E01282BD1FFE70599002016
:103830000866FFE7FFE70598006850E8000F20F0F2
:1038400010000090FFE700990598026842E8001018
:103850000028F0D1FFE7FFE705980068C06900F095
:1038600010010120B0EB111F05D1FFE70598016899
:1038700010200862FFE70598B0F85810FEF7ACFC7E
:1038800003E00598FFF7C8F8FFE7FFE706E00598B3
:103890000168088B40F008000883FFE706B080BD90
:1038A00080B586B005900598B0F85C00ADF81200C0
:1038B0000598C06F222840F08080FFE705980068D7
:1038C000808CADF81000BDF810009DF81210084073
:1038D0000599496D08700599486D0130486505994D
:1038E000B1F85A000138A1F85A000598B0F85A000A
:1038F000002861D1FFE7FFE7FFE70598006850E87F
:10390000000F20F490700390FFE703990598026878
:1039100042E800100028F0D1FFE7FFE7FFE7FFE7EC
:103920000598006850E8020F20F001000290FFE7C0
:1039300002990598026842E802100028F0D1FFE7DA
:10394000FFE705992020C86705990020486605987B
:10395000006E01282BD1FFE7059900200866FFE7DC
:10396000FFE70598006850E8000F20F01000019074
:10397000FFE701990598026842E800100028F0D19D
:10398000FFE7FFE705980068C06900F0100101201B
:10399000B0EB111F05D1FFE7059801681020086200
:1039A000FFE70598B0F85810FEF716FC03E00598FD
:1039B000FFF732F8FFE7FFE706E005980168088B9C
:1039C00040F008000883FFE706B080BD80B58EB0E8
:1039D0000D9000208DF827000D98006848F2000136
:1039E000C4F20001884201D1FFE700E0FFE70D9932
:1039F00088680B694A69C9691843104308430C90E9
:103A00000D980068006846F6F311CEF6FF71084085
:103A10000C9908430D99096808600D980068406882
:103A200020F440500D9A1168D268104348600D98F8
:103A300080690C900D98006848F20001C4F2000102
:103A4000884206D0FFE70D98016A0C9808430C9055
:103A5000FFE70D980068806820F430600C990843F7
:103A60000D9909688860FFE70D98006843F600012A
:103A7000C4F20101884225D1FFE741F28800C4F277
:103A80000200006800F0030001460791032814D8E3
:103A90000799DFE801F0020A060E01208DF82D00DB
:103AA0000FE002208DF82D000BE004208DF82D0092
:103AB00007E008208DF82D0003E010208DF82D0080
:103AC000FFE7DCE00D98006844F20041C4F2000119
:103AD00088422AD1FFE741F28800C4F20200006860
:103AE00000F00C00014606910C2819D80699DFE871
:103AF00001F0071717170F1717170B1717171300D2
:103B000000208DF82D000FE002208DF82D000BE035
:103B100004208DF82D0007E008208DF82D0003E02B
:103B200010208DF82D00FFE7A8E00D98006844F6FE
:103B30000001C4F2000188422CD1FFE741F2880065
:103B4000C4F20200006800F030000146059160B147
:103B5000FFE70598102810D0FFE70598202808D027
:103B6000FFE7059830280CD00FE000208DF82D00DD
:103B70000FE002208DF82D000BE004208DF82D00C1
:103B800007E008208DF82D0003E010208DF82D00AF
:103B9000FFE772E00D98006844F60041C4F20001AE
:103BA00088422CD1FFE741F28800C4F2020000688D
:103BB00000F0C0000146049160B1FFE7049840287E
:103BC00010D0FFE70498802808D0FFE70498C028A9
:103BD0000CD00FE000208DF82D000FE002208DF8B2
:103BE0002D000BE004208DF82D0007E008208DF853
:103BF0002D0003E010208DF82D00FFE73CE00D982C
:103C0000006848F20001C4F2000188422FD1FFE7AA
:103C100041F28800C4F20200006800F440600146EE
:103C2000039178B1FFE70398B0F5806F12D0FFE7FA
:103C30000398B0F5006F09D0FFE70398B0F5406F27
:103C40000CD00FE000208DF82D000FE002208DF841
:103C50002D000BE004208DF82D0007E008208DF8E2
:103C60002D0003E010208DF82D00FFE703E0102069
:103C70008DF82D00FFE7FFE7FFE7FFE7FFE7FFE72E
:103C80000D98006848F20001C4F20001884260D13A
:103C9000FFE79DF82D0001460291082819D80299E6
:103CA000DFE801F0051709170F1717171300FDF7C5
:103CB00085FC089013E042F20040C0F2F400089046
:103CC0000DE0FDF7A3FC089009E04FF400400890D8
:103CD00005E00020089001208DF82700FFE70898F4
:103CE000B0B3FFE708980D99496801EB410188429C
:103CF00007D3FFE708980D994968B0EB013F04D955
:103D0000FFE701208DF8270021E00898010E00024E
:103D10000D9A526810EB520041F100010023FCF7AC
:103D2000CDFA0A900A98B0F5407F0BD3FFE70A99C5
:103D30000020B0EB115F05D1FFE70A980D990968E3
:103D4000C86003E001208DF82700FFE7FFE7FFE7E9
:103D5000A7E00D98C069B0F5004F58D1FFE79DF876
:103D60002D000146019108281DD80199DFE801F0D6
:103D700005090D1B131B1B1B1700FDF71FFC0890EB
:103D800017E0FDF72FFC089013E042F20040C0F26C
:103D9000F40008900DE0FDF739FC089009E04FF4BD
:103DA0000040089005E00020089001208DF82700D1
:103DB000FFE7089850B3FFE7089840000D9949685D
:103DC00000EB5100B0FBF1F00A900A98102818D3CC
:103DD000FFE7BDF82A00A0B9FFE70A9820F00F001E
:103DE000ADF82E000A9800F00E01BDF82E0040EA52
:103DF0005100ADF82E00BDF82E000D990968C8607D
:103E000003E001208DF82700FFE7FFE748E09DF879
:103E10002D000146009108281DD80099DFE801F027
:103E200005090D1B131B1B1B1700FDF7C7FB089093
:103E300017E0FDF7D7FB089013E042F20040C0F214
:103E4000F40008900DE0FDF7E1FB089009E04FF465
:103E50000040089005E00020089001208DF8270020
:103E6000FFE70898D8B1FFE708980D99496800EB7B
:103E70005100B0FBF1F00A900A9810280AD3FFE72E
:103E8000BDF82A0030B9FFE7BDF828000D99096890
:103E9000C86003E001208DF82700FFE7FFE7FFE798
:103EA000FFE70D99002048660D9988669DF8270068
:103EB0000EB080BD86B005900491ADF80E20049838
:103EC00005994865BDF80E000599A1F85800BDF8A0
:103ED0000E000599A1F85A00059900204866FFE7F1
:103EE00005988068B0F5805F10D1FFE705980069FC
:103EF00030B9FFE7059940F2FF10A1F85C0004E03B
:103F00000599FF20A1F85C00FFE72EE00598806886
:103F100078B9FFE70598006928B9FFE70599FF2000
:103F2000A1F85C0004E005997F20A1F85C00FFE7A0
:103F30001AE005988068B0F1805F0FD1FFE705981F
:103F4000006928B9FFE705997F20A1F85C0004E02B
:103F500005993F20A1F85C00FFE704E005990020E7
:103F6000A1F85C00FFE7FFE7FFE7FFE70599002006
:103F7000C1F8800005992220C867FFE7FFE7059890
:103F8000006850E8020F40F001000290FFE702993C
:103F90000598026842E802100028F0D1FFE7FFE729
:103FA00005988068B0F5805F0BD1FFE70598006940
:103FB00038B9FFE7059943F27170C0F60000486612
:103FC00006E0059943F6A100C0F600004866FFE749
:103FD000FFE70599002081F87400FFE70598006964
:103FE000A0B1FFE7FFE7FFE70598006850E8000F82
:103FF00040F490700190FFE701990598026842E84B
:1040000000100028F0D1FFE7FFE713E0FFE7FFE72C
:104010000598006850E8000F40F020000090FFE78E
:1040200000990598026842E800100028F0D1FFE7E7
:10403000FFE7FFE7002006B07047000084B0039060
:104040000398806F212842D1FFE70398B0F852000F
:1040500038BBFFE7FFE7FFE70398006850E8000F71
:1040600020F080000190FFE701990398026842E880
:1040700000100028F0D1FFE7FFE7FFE7FFE7039814
:10408000006850E8000F40F040000090FFE7009902
:104090000398026842E800100028F0D1FFE7FFE72C
:1040A00014E00398C06C0290029800886FF35F20C0
:1040B0000399096808850399C86C0230C86403999C
:1040C000B1F852000138A1F85200FFE7FFE704B051
:1040D0007047000083B002900298806F21283DD184
:1040E000FFE70298B0F8520038BBFFE7FFE7FFE7B1
:1040F0000298006850E8000F20F080000190FFE770
:1041000001990298026842E800100028F0D1FFE708
:10411000FFE7FFE7FFE70298006850E8000F40F074
:1041200040000090FFE700990298026842E8001002
:104130000028F0D1FFE7FFE70FE002980168C06CAC
:10414000007808850299C86C0130C8640299B1F8FA
:1041500052000138A1F85200FFE7FFE703B07047B3
:1041600080B58AB0DDF830C0089007918DF81B202B
:104170000593FFE708980068C06907990840401A4E
:10418000B0FA80F040099DF81B10884240F09880FA
:10419000FFE70C980130002800F09180FFE7FCF762
:1041A000C9FC0599401A0C99884203D8FFE70C987E
:1041B000A8BBFFE7FFE7FFE70898006850E8000F9B
:1041C00020F4D0700490FFE704990898026842E850
:1041D00000100028F0D1FFE7FFE7FFE7FFE70898AE
:1041E000006850E8020F20F001000390FFE70399F8
:1041F0000898026842E802100028F0D1FFE7FFE7C4
:104200000899202088670899C867FFE70899002067
:1042100081F87400FFE703208DF8270054E0089828
:10422000006800684007002848D5FFE70898006844
:10423000C06900F400610120B0EBD12F3DD1FFE750
:10424000089801684FF400600862FFE7FFE70898EC
:10425000006850E8000F20F4D0700290FFE7029948
:104260000898026842E800100028F0D1FFE7FFE755
:10427000FFE7FFE70898006850E8020F20F0010010
:104280000190FFE701990898026842E802100028AF
:10429000F0D1FFE7FFE70899202088670899C867F1
:1042A0000899C1F88000FFE70899002081F87400A0
:1042B000FFE703208DF8270006E0FFE7FFE759E757
:1042C00000208DF82700FFE79DF827000AB080BD89
:1042D00080B540F29030C2F20000FDF78BFF80BD48
:1042E00080B540F21440C2F20000FDF783FF80BDAC
:1042F000FFE7FEE781B08DF803009DF90300002879
:104300000ED4FFE79DF9031001F01F020120904039
:104310004A094EF20011CEF2000141F82200FFE7F7
:1043200001B070474EF60C50CEF200000068C0F3AA
:104330000220704782B08DF8070000919DF90700B8
:1043400000280AD4FFE7009800019DF907104EF2FB
:104350000042CEF2000288540BE0009800019DF864
:10436000071001F00F014EF61452CEF200028854ED
:10437000FFE702B07047000083B00290029800F09F
:10438000070000904EF60C51CEF200010868019033
:1043900001984FF6FF02104001900198009A40EA00
:1043A00002200022C0F2FA521043019001980860E6
:1043B00003B0704780B5ADF5007D40F21D50C2F2EC
:1043C000000040F24E01C2F20001FCF79DF838B93E
:1043D000FFE740F21831C2F2000101200860FFE758
:1043E00040F21830C2F200000068013801467F91A7
:1043F0000D2800F275867F99DFE811F00E00890024
:10440000FD007101E5015902CC023F03B20325040E
:1044100098040B057E05F10540F21D50C2F2000024
:104420006421FCF727F840F29E00C2F200007C9065
:10443000FBF7BCFF7C9982B240F21440C2F200004C
:104440004FF4FA737D93FEF7ADFB7D98FCF794F97A
:1044500040F2E650C2F200007E90FBF7A7FF7E9983
:10446000084410F8040C4F283DD1FFE740F2E65015
:10447000C2F200007B90FBF799FF7B99084410F88B
:10448000030C4B282FD1FFE740F2E650C2F20000A8
:104490007A90FBF78BFF7A9982B240F29030C2F2A9
:1044A000000079904FF4FA737893FEF77BFBC820F5
:1044B000FCF762F940F23410C2F200007790FBF78B
:1044C00075FF7799789B0246799892B2FEF76AFB5E
:1044D0007A986421FBF7CEFF40F21831C2F2000156
:1044E0000220086011E040F29E00C2F200007690C7
:1044F000FBF75CFF769982B240F21440C2F20000F2
:104500004FF4FA73FEF74EFBFFE700F0E9BD40F20F
:10451000B000C2F200007390FBF748FF739982B2BB
:1045200040F21440C2F200004FF4FA737493FEF7A5
:1045300039FB7498FCF720F940F2E650C2F2000013
:104540007590FBF733FF7599084410F8040C4F2859
:104550003DD1FFE740F2E650C2F200007290FBF757
:1045600025FF7299084410F8030C4B282FD1FFE760
:1045700040F2E650C2F200007190FBF717FF71990C
:1045800082B240F29030C2F2000070904FF4FA73A1
:104590006F93FEF707FBC820FCF7EEF840F25C10C3
:1045A000C2F200006E90FBF701FF6E996F9B02460E
:1045B000709892B2FEF7F6FA71986421FBF75AFFF1
:1045C00040F21831C2F200010320086011E040F20D
:1045D000B000C2F200006D90FBF7E8FE6D9982B268
:1045E00040F21440C2F200004FF4FA73FEF7DAFA18
:1045F000FFE700F075BD40F27E00C2F200006A9055
:10460000FBF7D4FE6A9982B240F21440C2F2000075
:104610004FF4FA736B93FEF7C5FA6B98FCF7ACF89E
:1046200040F2E650C2F200006C90FBF7BFFE6C99BE
:10463000084410F8040C4F283DD1FFE740F2E65043
:10464000C2F200006990FBF7B1FE6999084410F8C6
:10465000030C4B282FD1FFE740F2E650C2F20000D6
:104660006890FBF7A3FE689982B240F29030C2F2E4
:10467000000067904FF4FA736693FEF793FAC82030
:10468000FCF77AF840F2FB00C2F200006590FBF7FD
:104690008DFE6599669B0246679892B2FEF782FA94
:1046A00068986421FBF7E6FE40F21831C2F200017F
:1046B0000420086011E040F27E00C2F20000649025
:1046C000FBF774FE649982B240F21440C2F200001B
:1046D0004FF4FA73FEF766FAFFE700F001BD40F20F
:1046E0008700C2F200006190FBF760FE619982B220
:1046F00040F21440C2F200004FF4FA736293FEF7E6
:1047000051FA6298FCF738F840F2E650C2F2000025
:104710006390FBF74BFE6399084410F8040C4F2894
:104720003DD1FFE740F2E650C2F200006090FBF797
:104730003DFE6099084410F8030C4B282FD1FFE789
:1047400040F2E650C2F200005F90FBF72FFE5F9947
:1047500082B240F29030C2F200005E904FF4FA73E1
:104760005D93FEF71FFAC820FCF706F840F20C1024
:10477000C2F200005C90FBF719FE5C995D9B02465B
:104780005E9892B2FEF70EFA5F986421FBF772FE14
:1047900040F21831C2F200010520086011E040F239
:1047A0008700C2F200005B90FBF700FE5B9982B2CB
:1047B00040F21440C2F200004FF4FA73FEF7F2F92F
:1047C000FFE700F08DBC40F25300C2F200005890A9
:1047D000FBF7ECFD589982B240F21440C2F200009F
:1047E0004FF4FA735993FEF7DDF95998FBF7C4FFBC
:1047F00040F2E650C2F200005A90FBF7D7FD5A99FA
:10480000084410F8040C4F283DD1FFE740F2E65071
:10481000C2F200005790FBF7C9FD5799084410F801
:10482000030C4B282FD1FFE740F2E650C2F2000004
:104830005690FBF7BBFD569982B240F29030C2F21F
:10484000000055904FF4FA735493FEF7ABF9C8206B
:10485000FBF792FF40F21C10C2F200005390FBF7EE
:10486000A5FD5399549B0246559892B2FEF79AF9CA
:1048700056986421FBF7FEFD40F21831C2F20001A8
:104880000620086011E040F25300C2F2000052908E
:10489000FBF78CFD529982B240F21440C2F2000044
:1048A0004FF4FA73FEF77EF9FFE700F019BC40F20F
:1048B0005220C2F200004F90FBF778FD4F9982B270
:1048C00040F21440C2F200004FF4FA735093FEF726
:1048D00069F95098FBF750FF40F2E650C2F2000031
:1048E0005190FBF763FD5199084410F8040C4F28D0
:1048F0003DD1FFE740F2E650C2F200004E90FBF7D8
:1049000055FD4E99084410F8030C4B282FD1FFE7B2
:1049100040F2E650C2F200004D90FBF747FD4D9982
:1049200082B240F29030C2F200004C904FF4FA7321
:104930004B93FEF737F9C820FBF71EFF40F27A20B1
:10494000C2F200004A90FBF731FD4A994B9B0246A8
:104950004C9892B2FEF726F94D986421FBF78AFD38
:1049600040F21831C2F200010720086011E040F265
:104970005220C2F200004990FBF718FD499982B21B
:1049800040F21440C2F200004FF4FA73FEF70AF945
:10499000FFE7A5E340F28C20C2F200004690FBF74F
:1049A00005FD469982B240F21440C2F200004FF475
:1049B000FA734793FEF7F6F84798FBF7DDFE40F2EF
:1049C000E650C2F200004890FBF7F0FC489908441A
:1049D00010F8040C4F283DD1FFE740F2E650C2F238
:1049E00000004590FBF7E2FC4599084410F8030CE1
:1049F0004B282FD1FFE740F2E650C2F2000044906E
:104A0000FBF7D4FC449982B240F29030C2F200002D
:104A100043904FF4FA734293FEF7C4F8C820FBF7B3
:104A2000ABFE40F29B20C2F200004190FBF7BEFCBF
:104A30004199429B0246439892B2FEF7B3F84498DC
:104A40006421FBF717FD40F21831C2F20001082083
:104A5000086011E040F28C20C2F200004090FBF7A9
:104A6000A5FC409982B240F21440C2F200004FF41B
:104A7000FA73FEF797F8FFE732E340F2A300C2F2C1
:104A800000003D90FBF792FC3D9982B240F2144049
:104A9000C2F200004FF4FA733E93FEF783F83E989B
:104AA000FBF76AFE40F2E650C2F200003F90FBF7CF
:104AB0007DFC3F99084410F8030C53280ED0FFE703
:104AC00040F2E650C2F200003C90FBF76FFC3C99CC
:104AD000084410F8030C4B282FD1FFE740F2E650B2
:104AE000C2F200003B90FBF761FC3B9982B240F2BE
:104AF0009030C2F200003A904FF4FA733993FEF707
:104B000051F8C820FBF738FE40F24210C2F2000014
:104B10003890FBF74BFC3899399B02463A9892B291
:104B2000FEF740F83B986421FBF7A4FC40F21831F3
:104B3000C2F200010920086011E040F2A300C2F2B5
:104B400000003790FBF732FC379982B240F21440F4
:104B5000C2F200004FF4FA73FEF724F8FFE7BFE259
:104B600040F29200C2F200003490FBF71FFC34992F
:104B700082B240F21440C2F200004FF4FA7335934F
:104B8000FEF710F83598FBF7F7FD40F2E650C2F259
:104B900000003690FBF70AFC3699084410F8040C24
:104BA0004F283DD1FFE740F2E650C2F200003390BB
:104BB000FBF7FCFB3399084410F8030C4B282FD16A
:104BC000FFE740F2E650C2F200003290FBF7EEFB46
:104BD000329982B240F29030C2F2000031904FF42C
:104BE000FA733093FDF7DEFFC820FBF7C5FD40F2F6
:104BF0002910C2F200002F90FBF7D8FB2F99309BB1
:104C00000246319892B2FDF7CDFF32986421FBF74E
:104C100031FC40F21831C2F200010A20086011E0B4
:104C200040F29200C2F200002E90FBF7BFFB2E99DB
:104C300082B240F21440C2F200004FF4FA73FDF762
:104C4000B1FFFFE74CE240F23020C2F200002B90AF
:104C5000FBF7ACFB2B9982B240F21440C2F2000089
:104C60004FF4FA732C93FDF79DFF2C98FBF784FD0E
:104C700040F2E650C2F200002D90FBF797FB2D9911
:104C8000084410F8040C4F283DD1FFE740F2E650ED
:104C9000C2F200002A90FBF789FB2A99084410F819
:104CA000030C4B282FD1FFE740F2E650C2F2000080
:104CB0002990FBF77BFB299982B240F29030C2F237
:104CC000000028904FF4FA732793FDF76BFFC8207C
:104CD000FBF752FD40F24220C2F200002690FBF7A3
:104CE00065FB2699279B0246289892B2FDF75AFF4A
:104CF00029986421FBF7BEFB40F21831C2F2000193
:104D00000B20086011E040F23020C2F20000259034
:104D1000FBF74CFB259982B240F21440C2F200002E
:104D20004FF4FA73FDF73EFFFFE7D9E140F224307C
:104D3000C2F200002290FBF739FB229982B240F2C6
:104D40001440C2F200004FF4FA732393FDF72AFFD8
:104D50002398FBF711FD40F2E650C2F200002490C8
:104D6000FBF724FB2499084410F8040C4F283DD18C
:104D7000FFE740F2E650C2F200002190FBF716FB7D
:104D80002199084410F8030C4B282FD1FFE740F27B
:104D9000E650C2F200002090FBF708FB209982B297
:104DA00040F29030C2F200001F904FF4FA731E934D
:104DB000FDF7F8FEC820FBF7DFFC40F2EB00C2F283
:104DC00000001D90FBF7F2FA1D991E9B02461F98EA
:104DD00092B2FDF7E7FE20986421FBF74BFB40F20F
:104DE0001831C2F200010C20086011E040F22430BA
:104DF000C2F200001C90FBF7D9FA1C9982B240F273
:104E00001440C2F200004FF4FA73FDF7CBFEFFE747
:104E100066E140F22900C2F200001990FBF7C6FAE1
:104E2000199982B240F21440C2F200004FF4FA73B2
:104E30001A93FDF7B7FE1A98FBF79EFC40F2E65076
:104E4000C2F200001B90FBF7B1FA1B99084410F85E
:104E5000040C4F283DD1FFE740F2E650C2F20000BB
:104E60001890FBF7A3FA1899084410F8030C4B2884
:104E70002FD1FFE740F2E650C2F200001790FBF797
:104E800095FA179982B240F29030C2F20000169063
:104E90004FF4FA731593FDF785FEC820FBF76CFC01
:104EA00040F23A00C2F200001490FBF77FFA149926
:104EB000159B0246169892B2FDF774FE179864216E
:104EC000FBF7D8FA40F21831C2F200010D20086059
:104ED00011E040F22430C2F200001390FBF766FAB2
:104EE000139982B240F21440C2F200004FF4FA73F8
:104EF000FDF758FEFFE7F3E040F20400C2F20000C5
:104F00001090FBF753FA109982B240F21440C2F2AB
:104F100000004FF4FA731193FDF744FE1198FBF76C
:104F20002BFC40F2E650C2F200001290FBF73EFA72
:104F30001299084410F8040C4F283DD1FFE740F2C5
:104F4000E650C2F200000F90FBF730FA0F990844C8
:104F500010F8030C4B282FD1FFE740F2E650C2F2C5
:104F600000000E90FBF722FA0E9982B240F29030C8
:104F7000C2F200000D904FF4FA730C93FDF712FE8D
:104F8000C820FBF7F9FB40F21600C2F200000B90BC
:104F9000FBF70CFA0B990C9B02460D9892B2FDF7A9
:104FA00001FE0E986421FBF765FA40F21831C2F257
:104FB00000010E20086011E040F22430C2F200002F
:104FC0000A90FBF7F3F90A9982B240F21440C2F258
:104FD00000004FF4FA73FDF7E5FDFFE780E040F2D3
:104FE0005F00C2F200000790FBF7E0F9079982B278
:104FF00040F21440C2F200004FF4FA730893FDF738
:10500000D1FD0898FBF7B8FB40F2E650C2F2000071
:105010000990FBF7CBF90999084410F8040C4F28C4
:105020004BD1FFE740F2E650C2F200000690FBF7DA
:10503000BDF90699084410F8030C4B283DD1FFE751
:1050400040F2E650C2F200000590FBF7AFF9059977
:1050500082B240F29030C2F2000004904FF4FA7332
:105060000393FDF79FFDC820FBF786FB40F271001C
:10507000C2F200000190FBF799F90199039B0246E7
:10508000049892B2FDF78EFD40F24E10C2F200007D
:105090000290FBF78BF90299039B0246049892B2A7
:1050A000FDF780FD05986421FBF7E4F940F2183123
:1050B000C2F200010020086011E040F25F00C2F27D
:1050C00000000090FBF772F9009982B240F21440A0
:1050D000C2F200004FF4FA73FDF764FDFFE7FFE74B
:1050E0000DF5007D80BD000080B596B000201090C9
:1050F0001590FBF733FDFEF779F9FDF77BFEFDF721
:10510000EBFEFDF70BFFFDF72BFF40F21440C2F260
:105110000000039040F2E551C2F200010122149216
:10512000FDF71AFC149A40F29030C2F20000019090
:1051300040F21C51C2F20001FDF70EFC40F2767005
:10514000C2F200000090FBF731F900990246019885
:1051500092B2FDF7CFFD40F2DA70C2F20000029089
:10516000FBF724F902990246039892B2FDF7C2FDBB
:1051700040F22430C2F200000C90FBF717F9014610
:105180000C980844059040F2BB00C2F20000049065
:10519000FBF70CF9049902460598FBF726F90C98E1
:1051A000FBF704F901460C980844079040F2D00040
:1051B000C2F200000690FBF7F9F80699024607983C
:1051C000FBF713F90C98FBF7F1F801460C9808442B
:1051D000099040F2DE00C2F200000890FBF7E6F80A
:1051E000089902460998FBF700F90C98FBF7DEF8DE
:1051F00001460C9808440B9040F2E100C2F2000016
:105200000A90FBF7D3F80A9902460B98FBF7EDF8E2
:105210000C98FBF7CBF801460C9808440E9040F22E
:10522000E600C2F200000D90FBF7C0F80D990246AF
:105230000E98FBF7DAF8149A40F20040C4F600002A
:105240000F9008211391FBF75FFC109A40F60000C5
:10525000C4F6000012902021FBF756FC0F98149A18
:105260001146FBF751FC109A129802211191FBF79D
:105270004BFC109A12981399FBF746FC119912985F
:10528000149AFBF741FC43F69820FBF775FA129845
:105290001399149AFBF738FC4FF4FA60FBF76CFA99
:1052A000FFE700F079F8FFF785F8FAE780B586B0F8
:1052B00040F21D50C2F2000000782F286AD1FFE7AB
:1052C00040F2AE60C2F2000040F26811C2F200018A
:1052D0006422FBF78AF800200590FFE70598622812
:1052E00011DCFFE7059A40F21D50C2F200001044A5
:1052F000407840F21271C2F200018854FFE705982D
:1053000001300590EAE740F2AE60C2F2000003907F
:10531000FBF74CF801460398084440F21271C2F2C0
:105320000001009164220492FBF75FF840F2CC1078
:10533000C2F200000190FBF739F80099049A034685
:1053400001981844FBF751F80398FBF72FF80399DD
:1053500082B240F21440C2F200004FF4FA7302939A
:10536000FDF720FC0198FBF721F80199029B82B21E
:1053700040F29030C2F20000FDF714FC049903984B
:10538000FBF778F8049940F21D50C2F20000FBF7D9
:1053900071F8FFE706B080BD80B582B040F28C3076
:1053A000C2F200000068012820D1FFE740F27670C9
:1053B000C2F20000019040F2E651C2F20001642204
:1053C000FBF713F80198FAF7F1FF019982B240F266
:1053D0009030C2F200004FF4FA73FDF7E3FB40F2A5
:1053E0008C31C2F2000100200860FFE740F28830F3
:1053F000C2F200000068012822D1FFE7FFF756FF44
:1054000040F2DA70C2F20000009040F21D51C2F288
:1054100000016422FAF7E9FF0098FAF7C7FF009944
:1054200082B240F21440C2F200004FF4FA73FDF76A
:10543000B9FB40F28831C2F2000100200860FFE7AA
:1054400002B080BDF1EE100A4FF6FF71C0F2C0311C
:1054500020EA010040F04070E1EE100A70470000C1
:105460000000000000000102030406070809000014
:105470000000010203040000A0860100400D0300AB
:10548000801A060000350C0040420F0080841E0088
:1054900000093D0000127A000024F40000366E017D
:1054A0000048E801006CDC02C8540008000000203D
:1054B000B8020000D001000810560008B802002011
:1054C000900B000034020008202700093D004154E1
:1054D0002B43495052584745543D302C310D0A005A
:1054E000416C6C6F772072656365697665204F4B00
:1054F000133125700953454E443D312C3424400965
:105500007472616E736D697425534B542A7006472B
:105510004154543F3620094F5051554552593D5B37
:105520007009434F4E4E4543545F555353510950F4
:10553000045245473330074950414444524B4111CE
:1055400050084E45544F50454E29A00450494E5CDA
:1055500013454E92101B22544350222C220031310D
:10556000372E362E3136332E31373700222C003687
:10557000018004002C307A6004204950AD700A206C
:1055800063756F6E6720646F1113646110736B79BC
:10559000217005475052532E913970066D6F647516
:1055A0006E47119F71253007484F414E2054B91165
:1055B0002804041173696D3F110102510001565412
:1055C0008C00065565643A20000109102C11E6098B
:1055D0001129100B54494D454F55543D333001337B
:1055E0002C3206323406223512151EA40D53657472
:1055F0002074696D656F7574202470064D4F4445A5
:105600003D21B95F500501000010D90000000000E5
:040000050800019559
:00000001FF
